:0A0000000C945C000C9400000C94BA
:10000A0000000C9400000C9400000C9400000C9466
:10001A0000000C9400000C9400000C9400000C9456
:10002A0000000C9400000C9400000C9400000C9446
:10003A0000000C9400000C9400000C9400000C9436
:10004A008B000C9400000C94B9000C9400000C94E2
:10005A0000000C9400000C9400000C9400000C9416
:10006A0000000C9400000C9400000C9400000C9406
:10007A00CA000C9400000C94ED000C9400000C943F
:10008A0000001027E80364000A00010000100001C4
:10009A001000010000000000000000000000000045
:1000AA00010002009E000A000400A0000000F8946B
:1000BA00EE27ECBBF1E0F5BFE5BFE0936C008DE005
:1000CA00A2E0BB27ED938A95E9F780E090E1A0E0F2
:1000DA00B1E0ED930197E9F7EAEAF0E085919591AD
:1000EA00009761F0A591B59105901590BF01F001B7
:1000FA0005900D920197E1F7FB01F0CFEFEFEDBF0D
:10010A00E0E1EEBFC0E0D5E00C9412010E94AA0122
:10011A001A930A931BB10CB1E12FEC7189F4E42D07
:10012A004394F0E0E050FB4F0083E0E4E41509F467
:10013A0044246394E0E4E61519F46624689420F8EC
:10014A0040C01A936620F1F3E72D7394F0E0E05073
:10015A00FB4F1081E0E4E71509F47724F8946A94D8
:10016A007894E12F199108950E94AA01BB2061F0A9
:10017A00BA94E82D8394F0E0E05CFA4FE081ECB9A0
:10018A00E0E4E81509F488241EC00E94AA011A9323
:10019A000A9310919B0000919C00E12FEC7189F465
:1001AA00EA2DA394F0E0E058FA4F0083E0E4EA1560
:1001BA0009F4AA24C394E0E4EC1519F4CC24689455
:1001CA0021F809911991E991EFBFF991E9911895EF
:1001DA00AA93EA93FA93EFB7EA93E0910206E03022
:1001EA00B1F0E150E0930206E0910106EF5FE0937F
:1001FA000106E150F0E0E054FA4FE081E0939C0000
:10020A00A0910106A03419F4E0E0E0930106E99117
:10021A00EFBFF991E991A9911895E0E0EABBEBBB30
:10022A00E0E8E7BBE0E0E8BBE4BBE5BBE1BBE2BB7F
:10023A00E8E1E2B9E8E0E3B9E0E0E0936100E093E5
:10024A006200E0936400E0936500E0BFE3BFE2BFB1
:10025A00E1BFEFBDEEBDEDBDECBDE7BDE6BDEBBD5B
:10026A00EABDE9BDE8BDE0937900E0937800E5BD19
:10027A00E4BDE3BDE0938B00E0938A00E09389003C
:10028A00E0938800E0938100E0938000E093870088
:10029A00E0938600E0938500E0938400E093830076
:1002AA00E0938200E7BFE0937D00E0936A00EABF33
:1002BA00E9BFEBB9E8EDEAB9E6E0E0939500E0E0E2
:1002CA00E0939000E7E0E9B9E0E0E0939B00E8ED15
:1002DA00E0939A00E6E0E0939D00E0E0E093980066
:1002EA00E7E0E0939900E0E8E8B9E0E0E0BDE6B9CC
:1002FA00EDB9E093740078941B9B02C01B9801C06F
:10030A001B9AA9E0B0E00E94B3011BDF5E2EA1E0B8
:10031A00B0E00E94B301E1E4E51519F41C9A0E94C9
:10032A00AF01E2E4E51519F41C980E94AF01E3E479
:10033A00E51519F4C79A0E94AF01E4E4E51519F42A
:10034A00C7980E94AF01D8CFFFCFEA93FA93EFB7CD
:10035A00EA930895A2E3B0E00C94B301109639F041
:10036A0086E69EE00197F1F7A8951197C9F70895D7
:00000001FF
