:0E00000027C0FECFFDCFFCCFFBCFFACFF9CF4C
:10000E00F8CFF7CFF6CFF5CF48C0F3CF74C0F1CF0E
:10001E00F0CFEFCFEECFEDCF1027E80364000A004C
:10002E00010000100001100001000000000000009F
:10003E0000000000010002003800080004003A0031
:10004E000000F894EE27ECBBF1E0FBBFEBBFE5BF81
:10005E008DE0A2E0BB27ED938A95E9F780E094E06E
:10006E00A0E6ED930197E9F7E2E4F0E08591959132
:10007E00009761F0A591B59105901590BF01F00123
:10008E0005900D920197E1F7FB01F0CFEFE5EDBF83
:10009E00E4E0EEBFC0E6D1E042C098D0A6D01BB1DE
:1000AE000CB1E12FEC7189F4E42D4394F0E0E05AA9
:1000BE00FE4F0083E8E6E41509F444246394E8E671
:1000CE00E61519F46624689420F80991199122C056
:1000DE001A936620F1F3E72D7394F0E0E05AFE4F89
:1000EE001081E8E6E71509F47724F8946A94789479
:1000FE00E12F199108956AD0BB2061F0BA94E82DD2
:10010E008394F0E0E853FE4FE081ECB9E8E6E815A1
:10011E0009F48824E991EFBFF991E9911895E0E08F
:10012E00E7BBE8BBECE0E4BBE0E0E5BBE8E0E1BB4D
:10013E00E2BBE0E0E3BFE2BFEFBDEEBDEDBDECBD67
:10014E00E7BDE6BDEBBDEABDE9BDE8BDE2BDE5BD7F
:10015E00E4BDE3BDE9BFE5BFEBB9E8EDEAB9E6E81A
:10016E00E0BDE0E0E0BDE7E0E9B9E0E8E8B9E0E0F5
:10017E00E0BFE6B9EDB9E6BF7894939B02C09398C1
:10018E0001C0939AA9E0B0E026D0A2DF5E2EA1E0D6
:10019E00B0E021D0E1E4E51551F4AA9B02C0E0E005
:1001AE0001C0E1E0E03011F4AA9801C0AA9AE2E49D
:1001BE00E51551F4AB9B02C0E0E001C0E1E0E03098
:1001CE0011F4AB9801C0AB9AD8CFFFCFEA93FA9354
:1001DE00EFB7EA930895109639F086E69EE0019700
:1001EE00F1F7A8951197C9F708951A930A930895F0
:00000001FF
